:0200000270008C
:1060000000000120F96207002163070023630700F5
:1060100025630700276307002963070000000000CD
:10602000000000000000000000000000DDA10700EB
:106030002D630700000000002F6307003163070095
:1060400033630700336307003363070033630700DC
:1060500033630700336307003363070033630700CC
:1060600033630700336307003363070033630700BC
:1060700033630700336307003363070033630700AC
:10608000F17D0700336307003363070033630700C4
:106090003363070033630700DDA3070033630700A2
:1060A000336307003363070033630700336307007C
:1060B00033630700336307000000000000000000A6
:1060C000336307003363070033630700336307005C
:1060D000697A07003363070033630700000000009C
:1060E00000000000000000000000000000000000B0
:1060F00000000000000000000000000000000000A0
:10610000000000000000000000000000000000008F
:10611000000000000000000000000000000000007F
:10612000000000000000000000000000000000006F
:10613000000000000000000000000000000000005F
:10614000000000000000000000000000000000004F
:10615000000000000000000000000000000000003F
:10616000000000000000000000000000000000002F
:10617000000000000000000000000000000000001F
:10618000000000000000000000000000000000000F
:1061900000000000000000000000000000000000FF
:1061A00000000000000000000000000000000000EF
:1061B00000000000000000000000000000000000DF
:1061C00000000000000000000000000000000000CF
:1061D00000000000000000000000000000000000BF
:1061E00000000000000000000000000000000000AF
:1061F000000000000000000000000000000000009F
:106200000348044B834202D0034B03B11847704745
:106210000C5A00200C5A00200000000005480649D6
:106220000B1AD90F01EBA301491002D0034B03B1A4
:10623000184770470C5A00200C5A0020000000003C
:1062400010B5064C237843B9FFF7DAFF044B13B1BE
:106250000448AFF300800123237010BD205A0020B2
:106260000000000034BF070008B5044B1BB104490F
:106270000448AFF30080BDE80840CFE7000000000D
:10628000245A002034BF0700A3F5803A704700BFAE
:10629000154B002B08BF114B9D46FFF7F5FF002162
:1062A0008B460F461148124A121A05F077FA0C4B2A
:1062B000002B00D098470B4B002B00D098470020B4
:1062C000002104000D000B4805F046F905F078F9AF
:1062D0002000290001F0A6F905F044F900000800AB
:1062E000000000000000000000000120205A0020F3
:1062F0007C8000208DB507000649074A074B9B1A92
:1063000003DD043BC858D050FBDC00F04DF8FFF72C
:10631000BFFF000098BF070068590020205A0020E6
:10632000FEE7FEE7FEE7FEE7FEE7FEE7FEE7FEE745
:10633000FEE7FEE70C4B1B78062B10D10B4B1B68BE
:106340001A070CD10A4B186800F0F003302B08D064
:1063500000F0E000A0F1400358425841704700208F
:1063600070470120704700BFE00F00F0E40F00F01D
:10637000E80F00F0094B1B78062B0CD1084B1B686B
:106380001A0708D1074B186800F0F000A0F130039D
:106390005842584170470020704700BFE00F00F09E
:1063A000E40F00F0E80F00F008B5FFF7C3FF28B1D5
:1063B0007D4B7E4A1B68C3F304231360FFF7DAFFAB
:1063C00010B17B4B7B4A1A60FFF7B4FF28B17A4BC0
:1063D0007A4A1B68C3F342331360FFF7CBFF20B147
:1063E000774AD36823F08073D360FFF7A3FF40B1EF
:1063F0004FF080430022C3F80C21C3F81021C3F8EA
:106400003825FFF7B7FF10B16E4B03221A60FFF774
:10641000B1FF40B16C4B05221A6001229A6700223D
:106420009A603F225A60694B1B78062B50D1684B0B
:106430001B6819074CD1674B1B6803F0F003502B06
:1064400046D14FF08052644BD2F80414C3F82015A3
:10645000D2F80814C3F82415D2F80C14C3F8281580
:10646000D2F81014C3F82C15D2F81414C3F8301550
:10647000D2F81814C3F83415D2F81C14C3F8401518
:10648000D2F82014C3F84415D2F82414C3F84815E0
:10649000D2F82814C3F84C15D2F82C14C3F85015B0
:1064A000D2F83014C3F85415D2F83414C3F8601578
:1064B000D2F83814C3F86415D2F83C14C3F8681540
:1064C000D2F84014C3F86C15D2F84424C3F87025F0
:1064D000FFF730FF28B1414B414A1B6803F04F03DF
:1064E0001360FFF727FF48B14FF08043D3F8002433
:1064F000D20744BF6FF00102C3F80024394B1B6878
:10650000062B08D1384B1B68062B01BF374A13688E
:1065100043F480631360364AD2F8883043F4700342
:10652000C2F88830BFF34F8FBFF36F8F4FF0102347
:10653000D3F80022002A03DBD3F80432002B2FDA31
:106540002C4B0122C3F80425D3F80024002AFBD0E9
:106550004FF010221521C2F80012D3F80024002AAF
:10656000FBD04FF010231522C3F80422214B1A460A
:10657000D3F800140029FBD00021C3F80415D2F889
:106580000034002BFBD0BFF34F8F19491A4BCA6858
:1065900002F4E0621343CB60BFF34F8F00BFFDE70F
:1065A000164B174A1A6008BD2403001040350140FD
:1065B00074C007400DF0ADBA440200103C05004025
:1065C000F0ED00E0A005004010560040E00F00F0A4
:1065D000E40F00F0E80F00F000C000405802001087
:1065E000E40E004030010010340100103C17004060
:1065F00000ED00E000E001400400FA0568590020C9
:106600000090D0034B1C30B5DB00044612F00300B1
:106610009BB20DD1074D2A601A44074B1A60074BF5
:106620001870074B1870074B1C80074B198030BD42
:106630000720FCE7445A0020405A00203C5A002022
:106640004C5A0020485A00204A5A00202DE9F347AE
:106650002B4F3B888B4206460D4690464BD3002479
:106660000DF107008DF8074000F086F8254B26480D
:106670001A78264B008893F800C084455FFA8CF1A5
:1066800038BF4C1CD2B238BFE4B2A2422DD01C7825
:106690001A78D1B2904286BF0131C9B20021197077
:1066A0009DF8070000F08CF84FF6FF739C4224D051
:1066B000DFF86090D9F800204FEAC40A42F834802D
:1066C00002EBC403A6B19DB1114B38881B682A4662
:1066D00004FB0030314604F0C7FFD9F800305344C2
:1066E00000209D8002B0BDE8F0874FF6FF74D7E729
:1066F00000209880F6E70920F4E70420F2E700BFC5
:10670000485A00204C5A00204A5A00203C5A002087
:10671000405A0020445A0020F8B5114C114D26462D
:1067200022782B789A4200D1F8BD0F480F4A23787F
:10673000126807880E4802EBC301006852F8332044
:10674000898803FB070090470A4922780988D3B259
:10675000914286BF0133DBB200233370E0E700BF14
:106760004C5A00203C5A0020485A0020445A00202D
:10677000405A00204A5A002070B5EFF3108672B6D6
:106780000C4A946801239CB993600B4B0B4DD3F8D2
:10679000801029401160C3F88050D3F884105160F4
:1067A0004FF0FF32C3F88420047006B962B670BDA2
:1067B0000370FAE7F07C002000E100E0FC06FFBD7A
:1067C00010B5084B9A685AB150B9EFF3108172B600
:1067D000054A1C6814605C685460986001B962B630
:1067E00010BD00BFF07C002000E100E030B53AB100
:1067F0001368DB430A4D0144814204D1D84330BDC4
:106800004FF0FF33F6E710F8012B5340082213F046
:10681000010418BF2C46013A84EA5303F7D1EBE791
:106820002083B8ED10B561B1B2FBF3F403FB14247F
:10683000A4B244B9C0E9001484608281C3812046B7
:1068400010BD0E20FCE70920FAE782B050E8022FC5
:10685000C188B2EB324F4FF0000317BF92B241EA4A
:10686000014142EA014104E04268B2EB324F08BF05
:10687000012340E80212002AE8D18DF807309DF884
:106880000730002B0CBF1120002002B0704737B535
:1068900050E8013F9DB2C48925448489A54228BFA0
:1068A0002D1B0489A54202BFBFF32F8F002207E0F2
:1068B000C5EA030540E80154002CE9D14FF001027C
:1068C0008DF803200193019B9DF803200B6002F0DB
:1068D000FF0322B10B880068184403B030BD18468E
:1068E000FBE70A884B889A4209D150E8012FC2EA97
:1068F000024240E80123002BF7D10120704700201D
:10690000704737B550E8023F1FFAA3F5C488A54287
:1069100002BFBFF32F8F00220DE0C4892544848974
:10692000A54228BF2D1BC3EA054540E80254002CB0
:10693000E8D14FF001028DF803200193019B9DF8EF
:1069400003200B6002F0FF0322B14B88006818445B
:1069500003B030BD1846FBE70A884B889A4209D13C
:1069600050E8022FC2EA224240E80223002BF7D16E
:10697000012070470020704710B5034653E8000F10
:1069800040EA010243E8002494F0000FF6D110BD64
:1069900010B5034653E8002F02EA010043E8000463
:1069A00094F0000FF6D110BD0121FFF7E5BF0021E3
:1069B000FFF7EEBF10B590B1D0E9012301689B1A33
:1069C000DBB20A60013BDBB2FF2B026802D1002080
:1069D000107110BD11684C1C14600B70F2E70E2092
:1069E000F7E737B5044600250DF107008DF807508D
:1069F000FFF7C2FE2268616813688B4210D9591EE6
:106A0000116013F8015C228AE36802FB05352268F5
:106A1000A36811685B1A1179DBB2994238BF137110
:106A20009DF80700FFF7CCFE284603B030BD37B510
:106A3000054600230DF107000C468DF80730FFF7DF
:106A40009BFE2A681368591C1160E968641A298A38
:106A5000B4FBF1F41C709DF80700FFF7B1FE03B022
:106A600030BD01600B681146184710B40468E46833
:106A7000A4465DF8044B604710B404682469A4463A
:106A80005DF8044B6047000070B550B90E4D0F4CD7
:106A90000026641B1423B4FBF3F4B44208D1002095
:106AA00010E00368002BF1D0BDE87040DB691847A7
:106AB0002B6813B901361435EFE7DB692846984790
:106AC0000028F7D070BD00BF0C5A0020205A0020CB
:106AD000014B43600020704774BA070008467047B6
:106AE00000207047024B1868003818BF012070471B
:106AF000505A002008B50248FFF759FF002008BD92
:106B0000505A002008B510461A4604F0ADFD00208A
:106B100008BD00002DE9F043814687B014480E46B9
:106B200015469846FFF740FF0446F0B90746BD42B8
:106B300015D10F48FFF73BFFD9F808305BB10222AF
:106B40008DF800200022CDE90126CDE90325CDF8FE
:106B5000148068469847204607B0BDE8F08306EBEE
:106B6000073000F0C3FB0137E1E71124F3E700BF72
:106B7000505A00202DE9F041804686B011480F465A
:106B800016461D46FFF710FF0446C8B9AA0831464D
:106B9000384600F0D9FB0B48FFF709FFD8F808305A
:106BA00053B101228DF800200C9A0592CDE90147DE
:106BB000CDE9036568469847204606B0BDE8F081F8
:106BC0001124F9E7505A002029DF704728DF704769
:106BD00070B50668B36886B004460D4673B11422DA
:106BE0000021684604F0DAFDA36805932379019536
:106BF00033B1012B0ED0B3686846984706B070BD1C
:106C000001238DF8003023690293E36803936369DD
:106C10000493F0E702238DF80030E3681B0302932E
:106C2000F5E708467047002070470000024B187ACD
:106C3000003818BF01207047405C0020034B187AD1
:106C40000122B0FA80F05A7440097047405C00207D
:106C500008B510461A4604F007FD002008BD0000E4
:106C600008B514220021044804F098FD0348FFF7FA
:106C7000ECFD002008BD00BF405C0020305C00201F
:106C800010B5094C094B43602046FFF78DFE48B90B
:106C900003F08AFB064920741C2306484FF4EE7269
:106CA000FFF7C0FD002010BD405C0020A0BA070027
:106CB000545A0020305C002070B5234C234E237AB8
:106CC00025463BB922492348FFF71BFE306008B92F
:106CD000606070BD022334682B72237973B1012B7D
:106CE00022D020460321FFF773FF00232B726B6035
:106CF000BDE8704016491748FFF72EBED4E90523BA
:106D0000D21A142AD4E9031028BF14229208012AA7
:106D100038BF012219441844FFF756FF50B111281B
:106D2000DFD101232B72D4E7D4E903031844FFF722
:106D30004DFFF3E72B7C002BCBD10146BDE8704023
:106D4000022000F009B800BF405C0020585C002021
:106D5000545C0020305C002038B5831E012B43D8E2
:106D6000224C237A002B3FD0022B09D103282ED0AE
:106D70001F4B00221B68E2601A793AB1012A20D029
:106D8000637C6BBBBDE83840FFF796BFD3E90512C3
:106D90008D1A142D94BF521914329A619142EFD179
:106DA00002284FF0000308BF19462372104B18BF8A
:106DB0000D211868FFF70CFF0E490F48FFF7CCFDB7
:106DC000DEE71A6901321A615B699A42E7E7E36814
:106DD0000133082B01D8E360D2E70023E360DFE74B
:106DE000BDE8384003F0D0BA38BD00BF405C002099
:106DF000585C0020545C0020305C002000F0FD0353
:106E0000012B08D1044B00225A74421E50425041BB
:106E10001874FFF751BF7047405C002010B5064C56
:106E2000201DFFF7C1FD28B9637C1BB9BDE81040E8
:106E3000FFF742BF10BD00BF405C00202DE9F341C9
:106E400080460D460F4801A916461F46FFF71FFD55
:106E50000446A8B11C22002104F0A0FC2D0B012344
:106E6000237101A90748C4F80080A760E560666146
:106E7000FFF737FDFFF7D2FF002002B0BDE8F08139
:106E80000420FAE7305C00202DE9F743814688466C
:106E9000104801A917461E46FFF7F9FC0446B0B199
:106EA0001C22002104F07AFC00250A9BA36001A9A2
:106EB000C4E9037807482571C4F800906661FFF7BC
:106EC00010FDFFF7ABFF284603B0BDE8F0830420B8
:106ED000FAE700BF305C002001600B6843604A683D
:106EE000934204BF002343607047436843B1026884
:106EF00091680B4443605268934204BF002343608F
:106F0000704700002DE9F04FC9B008AA01F1400513
:106F100014464B780E781B0443EA0663CE7833435D
:106F20008E78043143EA06238D4244F8043BF0D1C5
:106F30001024916B16464FEAF14383EA714383EACA
:106F40009123716A366852F8045F31440B444FEA6A
:106F5000B54181EAF51181EAD50101340B44402C99
:106F6000D363E6D1D0E914E30093836D0193C36D3D
:106F70000293036E0393436E0493836E0593C36E73
:106F80000693DDE9057BDDE9031CDDE901592B4BA7
:106F9000009E079374464FF00008079B53F8042B9C
:106FA00007934FEAF12383EAB11383EA716A08ABCE
:106FB00053F828301A440AEB020327EA010A01EACF
:106FC0000C028AEA02021A444FEA743A86EA05037E
:106FD0005A448AEAB40A06EA050B234083EA0B0303
:106FE0008AEAB45A08F101089A44B8F1400F02EB5A
:106FF0000903BB465244A94619D172440265009A5E
:1070000022444265019A32448265029A2A44C2654A
:10701000039A1A44049B02660B444366059B63442F
:107020008366069B3B44C36649B0BDE8F08F674664
:1070300035468C46264619461446AEE7CCBA0700BC
:1070400030B5E0B10F4A104900240025C0E91245CF
:10705000C0E914120D4C0E4A0E4DC0E916420E4AFC
:10706000C0E918520D4A826602F17452A2F5230259
:107070000023A2F692420364C266184630BD0E2079
:10708000FCE700BF85AE67BB67E6096A72F36E3C3A
:107090003AF54FA57F520E518C68059BABD9831FE3
:1070A00070B5F0B1DAB900201CE00C468D1800264E
:1070B000AC42F8D0036C14F8012BC2540133402BBE
:1070C0000364F5D10146FFF71DFFD0E9123213F535
:1070D000007342F10002C0E912320664E8E70029B9
:1070E000E3D10E2070BD70B50D461646044600284B
:1070F00075D0002973D0026C8021372A815402F1A7
:1071000001034FF0000240D8382B39D1D4E91201E5
:10711000226C0823E3FB020103BAE3630B0A84F841
:107120003A300B0C84F839300B0EC4E9120184F8A4
:107130003B1084F8383021462046FFF7E3FE691EF5
:1071400076B30023E26EDA4001F8012FA26EDA4036
:107150000A71626EDA400A72226EDA400A73E26DD8
:10716000DA400A74A26DDA400A75626DDA400A7676
:10717000226DDA400833202B0A77E3D1002070BD5E
:10718000E2540133C0E7E25401333F2BFBD92146DF
:107190002046FFF7B7FE3822002104F0FFFAB5E7DA
:1071A0001823226DDA4001F8012F626DDA400A716E
:1071B000A26DDA400A72E26DDA400A73226EDA409A
:1071C0000A74626EDA400A75A26EDA400A76E26EDE
:1071D000DA40083B13F1080F0A77E2D1CEE70E2020
:1071E000CDE743689B68184708B5436808305A796B
:1071F00000F0C9F9002008BD2DE9F0410C469CB013
:1072000008461F460392FFF7ECFFD4F80480039969
:1072100098F80550BD4228BF3D4606462A4604A8B8
:1072200000F0A6F998F8052022990CA800F0ABF917
:1072300000960CAB2A4604A904F1080004F00EF8ED
:10724000002848F2425018BF00201CB0BDE8F08171
:10725000044B1A5C012393404FF0A042C2F80C3556
:10726000704700BFD8BB0700044B1A5C0123934052
:107270004FF0A042C2F80835704700BFD8BB0700E6
:1072800008B50020FFF7F0FF0120FFF7EDFF022017
:10729000FFF7EAFFBDE808400320FFF7E5BFC2079C
:1072A00008B501460CD54FF0A0430322C3F844278C
:1072B000C3F84827C3F84C27C3F85027FFF7E0FF6F
:1072C0008B070AD54FF0A0430C22C3F83427C3F82C
:1072D0003827C3F83C27C3F8402708BD024AD2F834
:1072E0000034002BFBD0704700E001400A4908B58C
:1072F0000223C1F80435BFF36F8FBFF34F8FC1F87E
:107300000805FFF7EBFF0023C1F80435BFF36F8FCB
:10731000BFF34F8F08BD00BF00E0014010B5094C1E
:107320000123C4F80435BFF36F8FBFF34F8F0160A3
:10733000FFF7D4FF0023C4F80435BFF36F8FBFF30A
:107340004F8F10BD00E001400E4B10B50124C3F873
:107350000445BFF36F8FBFF34F8F01EB8204401AD8
:10736000A14208D1074B0022C3F80425BFF36F8F59
:10737000BFF34F8F10BD431851F8042B1A60FFF76D
:10738000ADFFEDE700E0014028B139B10023C1E9CC
:1073900000301846704748F21050704748F21350BA
:1073A000704738B1006848F24053884214BF18460D
:1073B0000020704748F21050704730B148F2115326
:1073C000914214BF18460020704748F21050704791
:1073D00070B506460C461D46FFF7D6FF50B9B37987
:1073E0004AB1AB420AD111462046FFF7FDFE08B96B
:1073F000044B236070BD48F21050FBE748F2115077
:10740000F8E700BF7052464D2DE9F0470C4606469E
:107410000F492046DDE9088915461F46FFF7C1FFE1
:10742000A0B963685A79494652004046FFF7C5FF44
:1074300060B94DB1CDF820803B462A462146304602
:10744000BDE8F047FFF7D8BE48F21050BDE8F0871E
:107450007052464D10B5044638B149B141600B68D1
:10746000984708B9044B236010BD48F20150FBE770
:1074700048F21050F8E700BF6E524648F0B4134689
:1074800048B10768094EB7420AD161B12AB14368D1
:10749000F0BC5B68184748F201531846F0BC7047CF
:1074A00048F20253F9E748F21053F6E76E524648A5
:1074B000F0B460B107680C4EB7420CD171B14368AB
:1074C0001568DC68A5420CD3F0BC9B68184748F2ED
:1074D0000150F0BC704748F20250FAE748F21350EE
:1074E000F7E748F21450F4E76E524648F7B5044601
:1074F000DDE9086715460193FFF7ACFF68B9019A0B
:1075000029462046FFF7BAFF38B93A4631462046A9
:1075100003B0BDE8F040FFF7CBBF03B0F0BD000003
:10752000F8B50A4F0A4C0B4DE41B0121E408297001
:107530000026A64203D102232B700020F8BD57F885
:10754000363098470028F9D10136F2E738BF0700F6
:1075500038BF07005C5C002001390144814200D241
:10756000704703780A7800F8012B01F80139F5E734
:10757000013A02440139824200D2704711F8013FBA
:1075800002F80139F7E770B516460D46FFF7F0FF30
:107590003246A9193044BDE87040FFF7E9BF38B55D
:1075A0000D460446FFF7D8FF29466019BDE838406C
:1075B000FFF7D2BFBFF34F8F0549064BCA6802F4ED
:1075C000E0621343CB60BFF34F8F00BFFDE700BF06
:1075D00000ED00E00400FA0508B507281BD8DFE835
:1075E00000F004121A1A1A041A040120FFF757FEB9
:1075F0000020FFF72DFE0120FFF72AFEBDE808401E
:107600000220FFF731BE0120FFF72EFEBDE8084043
:107610000220FFF71DBE08BD08B5FFF7CBFF08B578
:10762000FFF7C8FF08B500F0AFFB002210464FF48B
:10763000805100F03FF9024608B1FFF7BBFF054853
:10764000C0F5FC2100F036F90028F6D1024800F020
:1076500059F8F2E700600700D9750700007800F0DC
:107660000100704741DF7047014B01221A707047DB
:1076700080600020BFF34F8F0549064BCA6802F4B3
:10768000E0621343CB60BFF34F8F00BFFDE700BF45
:1076900000ED00E00400FA05024B034800221A70D6
:1076A00001F0CCBF8060002075760700042810B57B
:1076B000044609D8022811D816D00D4B1B68B3B167
:1076C0002046BDE810401847831F012BF5D8094B11
:1076D000094800221A7001F0B1FFEEE707494FF4A4
:1076E000701000F01FFAE8E701F0EEFEE5E710BDCC
:1076F000846000208060002075760700997607007E
:107700000020704738B5554B554A18604FF0A043DC
:107710000020C3F8402701F0A7FF0446002840F0EE
:10772000988000F0DBFA012800F08E80022800F03B
:107730009280002840F08D804FF08043D3F80044C1
:1077400014F4803435D04FF48032C3F8002404465A
:10775000444D2B6A012B3FD04FF4701400F054FBC2
:10776000414A20211820FEF74DFF08B1FFF757FFCF
:107770003E4B1A6802F0F802B02A06D11A68D20706
:1077800042BF1A6802F04E021A60FFF7B9FF0028E4
:107790005FD12046364900F0C5F9364801F046F879
:1077A000002856D100F056FBFEF7B6FFFFF75AFF50
:1077B000F8E7D3F8202502F0F802A82A0AD1D3F876
:1077C0002025D00706D5D3F8202502F05602C3F8AD
:1077D0002025BDE70124BBE743F204031A68264BCA
:1077E0009A4209D001F0DCFFAA69014694B123480E
:1077F00002F0C6FA90B9AFE76A6B1CB995F860322F
:10780000012BEFD01E484FF4805102F0B9FA002846
:10781000E8D1A1E795F8A132012BE8D14FF0A043C0
:10782000D3F81035D90397D5104B1B6813F0B10F5F
:1078300092D101F061FF60B9124B1870124801F04B
:10784000FDFE00F025F804E00E4B10481C7001F01E
:10785000F5FE032038BD4FF4A0247FE784600020AC
:107860000C000300FC7C0020605C00201C05004034
:1078700099760700AD760700DBE5B1519D7F0020CA
:107880005C7F002080600020697607007576070025
:1078900008B5074B4FF0FF32C3F88020C3F88021B2
:1078A00001F032FCBDE808404FF4805000F030B8E1
:1078B00000E100E070B5C1F30B0434BBB0F5FE2F5E
:1078C00023D84B1E1B0B020B03EB103101264FF08C
:1078D0008040914201D2204670BD02F01F0355093D
:1078E00006FA03F3032D05D8DFE805F00206090CBC
:1078F000C0F800360132ECE7C0F80436FAE7C0F809
:107900001036F7E7C0F81436F4E70724E3E7000081
:1079100010B5044617480022C0F5FE21FFF7CAFF44
:1079200008B1FFF77CFE01F03BFF134B9B6903F6A8
:10793000FF7323F47F6323F00F030022191810460E
:10794000FFF7B8FF08B1FFF76AFEEFF305830023E6
:10795000D4E9001283F3148883F3108883F3118829
:1079600083F3138881F308884FF0FF339E46104756
:1079700010BD00BF00600700FC7C002037B56FF031
:107980007F42154C057BD4F804358A4228BF0A464D
:10799000891A13444A1E942A23F07F4305F5A872DE
:1079A0009BBF963B96314160416044F822300B4BBF
:1079B0004FF4F86043F001039847094BAA001344C1
:1079C00000221A601B680193019B4FF48033AB4087
:1079D000C4F8043303B030BD0040024020BC0700AF
:1079E0004041024018490A7884B0002A29D14FF05A
:1079F0008043A020D3F81834DB035EBF134B012271
:107A00001A60134A0023136012680392039A114A02
:107A1000136012680292029A0F4A13601268019270
:107A2000019A0E4A82F82403102050600C4A0D4837
:107A3000C2F808350123036002201360C2F8040372
:107A40000B7004B0704700BF8C600020080000403D
:107A500000410240404102404441024000E100E058
:107A6000004002400840024013B5284B1A6842B15A
:107A700027490A6801320A6000221A601B680093D5
:107A8000009B244B1A68A2B100221A6022481B688E
:107A9000027B0193019B4FF4803393401F4AC2F84D
:107AA00008334168044601BB8168D9B9236803B132
:107AB00098471B4B1A6832B300221A6016481B689D
:107AC000027F0193019B4FF480339340134AC2F825
:107AD00008334169044659B1103002B0BDE8104086
:107AE000FFF74CBFFFF74AFFE0E7FFF747FFE0E78C
:107AF000816911B11030FFF741FF23691BB102B05A
:107B0000BDE81040184702B010BD00BF044102405C
:107B100088600020404102406C5900200040024033
:107B20004441024070B50B4B1D682A7B4FF48033F3
:107B30009340094A0E46C2F80833044640B1FFF7A5
:107B400051FF2E6021462846BDE87040FFF716BF62
:107B500070BD00BF8C5900200040024070B5074B3B
:107B60001D680E46A8600446FFF73CFF2E602146C4
:107B70002846BDE87040FFF701BF00BF90590020C4
:107B8000014B01221A7070478D60002070B5154DB1
:107B9000EA6A6E6AAC6CAC2A13D16B6B1C44F61AA1
:107BA000EB6AAC2B13D010483246214603F02CFD73
:107BB000A8B100F04FF931462046BDE8704001F011
:107BC00085BA002CECD101F001FE0446E8E7064836
:107BD0003246A4F5804103F017FD0028E3D10020D0
:107BE00070BD00BFFC7C0020006007002DE9F74F4E
:107BF00006468846A8EB06052D0B02F6FF771446CD
:107C000000F002F9082D28BF08252B03DFF868B023
:107C100001933F0B0CB9234629E0BD422CBFBA4665
:107C2000AA464FF000025146304634BFDDF80490BA
:107C3000A14601F033FA0346C8B909F1030222F064
:107C400003024146304601F01BFA034678B9DBF8DF
:107C500030304B44CBF8303001F0F6FCA7EB0A078C
:107C6000A4EB09044E44C84403460028D2D0184669
:107C700003B0BDE8F08F00BFFC7C002010B501F020
:107C8000B5FD154A42F20403916CCC5803F1A343AD
:107C900003F5471303F2D7539C4218D1D2E90C32B3
:107CA000934216D0884204D1BDE81040002001F074
:107CB000CBBCD21A02F6FF7222F47F6222F00F02CE
:107CC00019441844FFF792FF0028EDD010BD03209F
:107CD000FCE70020FAE700BFFC7C002070B5264CD2
:107CE000E36AAA2B37D005D8012B0BD0A52B2ED0B9
:107CF000002070BDAC2BFBD1FFF7C0FF48BBFFF7E6
:107D000045FF26E0A66C656A01F04AFD864229D14E
:107D100001F046FD00222946FEF768FDA36A98425D
:107D200002BF0123C4E90703A5610025134801F040
:107D30002BFD134B134800221A7001F085FC68B923
:107D400075B1236A012B14BF01200220D1E7FFF790
:107D500095FF0125EAE7FFF719FFE6E70320C8E7EB
:107D60000120C6E7236BEA1AF1181844FFF73EFF1B
:107D70000028DAD1CCE700BFFC7C0020207D002069
:107D80008D600020817B070008B540F6F87003681D
:107D9000013302D10749FFF7C1FA40F6FC700368CE
:107DA000013305D1BDE808404FF4FC21FFF7B6BA16
:107DB00008BD00BF006007000A4AD2F800347BB15A
:107DC00009480023D2F80815D940C90748BF03F570
:107DD000C07103F1010348BF42F82100072BF1D124
:107DE000704700BF000001403546526EFFF7E4BF08
:107DF000044B002282B01A601B680193019B02B001
:107E0000704700BF0001014038B50E4C2278BAB966
:107E10000D4BD3F800248AB1D3F80455FFF7CCFFFB
:107E200040F61650A842B8BF28460849A0F5486059
:107E3000FFF794FE064B4FF480321A600123237043
:107E400038BD00BF8E60002000000140ED7D0700BE
:107E500000E100E0034BD3F800340BB1FFF7ACBFF7
:107E6000704700BF000001400023C0E90232C0E9B2
:107E700000118B881A440261B1F906301A4442613C
:107E80000888003818BF0120704710B54268118873
:107E90000346002939D002F110014160148A2CB93F
:107EA000C2680168FFF7E0FF204610BD9078118995
:107EB00000F03004302C1BD1947C04F03004302CC2
:107EC0001DD190881969091A19610021907810F064
:107ED000300F02BF986801309860908A0844196991
:107EE00001441961B2F91620114459610120DCE7FF
:107EF00000F0F004202C02D150894143E6E700F065
:107F0000C000802808BF0421E0E70846CDE770B52F
:107F1000466804460D4663681A88AA4204D19B78D5
:107F200003F00F03082B07D12046FFF7AEFF63686D
:107F3000B342F0D1002070BD0120FCE743681A4431
:107F4000426011B101399A4201D10120704713F802
:107F5000010B01F8010FF6E72DE9F34183680446B0
:107F6000884623B90026304602B0BDE8F081036898
:107F700001220DF10701984706460028F2D0A368B8
:107F80009DF80750013BA3609DF90730002B1ADADA
:107F900005F07F050727A368002BE3D023680122A3
:107FA0000DF10701204698470028DBD0A3689DF813
:107FB0000720013BA36002F07F03BB401D43130673
:107FC00007F1070702D4C8F80050CCE7232FE2D10D
:107FD000C8E770B54268927802F00F01082986B0B0
:107FE00003461FD103691C6800260CB906B070BD9A
:107FF000236826739D68626829466846FFF734FF48
:108000006368049304F10C030593AB7803F0C00399
:10801000802B08BF231D684608BF0493FFF7D9FFD4
:10802000A468E2E712F0C00120D102F0300010286D
:108030000ED15A6911705A6818699378D46803F0A0
:108040000F03072B09D10146204600F017F8CDE7B2
:108050009006F0D55B691980C8E71289214614B1F2
:1080600003F002FBC2E703F099FBBFE78029BDD113
:108070000069002192060160B8D5EBE77FB50A469A
:1080800001466846FFF7F0FE30B16846FFF7A1FFF2
:108090006846FFF7FAFEF7E707B05DF804FB00005B
:1080A00030B5044685B01546A9B90268114B9A420D
:1080B00011D0102D06D82A4669462046FFF7F0FF5A
:1080C00005B030BD102269462046FFF7E9FF0028C1
:1080D000F6D0103DEDE7A368AB4201D20020EFE7F8
:1080E00023682A46204698470028F7D0A268521BEA
:1080F000A260E5E73D7F0700F7B50E4601A90746F8
:108100001546FFF729FFA8B1019A0123D3184FF0B4
:10811000000404D2B17801F0C001802901D12046C9
:1081200008E031899942FAD329463846FFF7B8FF6B
:10813000019BEC5403B0F0BD73B50D4601A9064692
:108140001446FFF709FF98B1019AB2F5803F11D2AA
:10815000AB7803F0C003802B02F102010AD02B8917
:108160008B4207D32146304621F8022BFFF798FFB8
:1081700002B070BD0020FBE710B5034C8260002206
:10818000C0E90041C26010BD3D7F07002DE9F34109
:10819000002604460F46B0463546A3682BB3236835
:1081A00001220DF1070120469847F0B1A3689DF820
:1081B00007C0013B0CF07F02C5F12001A360A5F1CF
:1081C000200302FA03F322FA01F10B43AA401CF048
:1081D000800F46EA020643EA080805F1070502D1C6
:1081E000C7E9006802E0462DD7D1002002B0BDE803
:1081F000F08173B50C4669461646FFF7C7FF68B1B4
:108200002389082B0CD1DDE90045C6E90045DDE9ED
:108210000023AB4206BFA2420120002002B070BD85
:10822000042B04D1009B33601C460025EFE7022B92
:108230004FF0000004D1009B33809CB20546E6E776
:10824000012BEBD1009B337003F0FF04F6E737B549
:108250000D4669461446FFF799FF30B12A89082A6E
:10826000DDE9003103D1C4E9003103B030BD042A97
:1082700018464FEAE37108D123601A460B468B4239
:1082800006BF824201200020EFE7022A04D11BB280
:1082900023801AB2D317F2E7012A03D15BB223700D
:1082A0005AB2F7E70020E0E7F7B51F4600233B701E
:1082B0000D460B70136001A904461646FFF74CFEED
:1082C00030B9A36813B901233B70002003B0F0BD9F
:1082D000019C002CF7D0E30804F0070433602C70F5
:1082E000F4E713B5044605291FD8DFE801F0030FB2
:1082F000151E1E1C012201A92046FFF7D1FE18B150
:108300009DF90430002BF5DB02B010BD08220021DE
:108310002046FFF7C5FEF7E701A9FFF71DFE00287D
:10832000F2D0019AF3E70422F1E70020ECE773B5FD
:108330000D4601A90446FFF70FFE064618B90026B0
:10834000304602B070BD94E80F0085E80F00019937
:108350008A42F4D3A960A3685B1AA360F0E7000027
:108360002DE9F0435768BB7813F0C00489B0064686
:108370008C46154603D0402C6AD000240CE003F054
:108380000F025F4903F03003202B51F8228026D0E2
:1083900006D8CBB1102B1CD0204609B0BDE8F08325
:1083A000302BF9D16B6939881980072A0AD16B689B
:1083B00028691A89214603F0F1F96B682969D868A0
:1083C000FFF75CFE2A6940E02A693946C047044647
:1083D000E2E76B6901221A702A696968F6E7BCF165
:1083E000020FD5F8149024D1042A22D804A9FFF74B
:1083F0009EFF04460028C0D0069B2BB16968B9F8DF
:1084000000304A899A4205D8059B7360069B002B71
:10841000C2D0B2E708892A6903FB002204A8C0473A
:1084200028B1B9F800300133A9F80030E4E7044678
:10843000EAE7B9F800307A899A429ED92A693989DF
:10844000581CA9F8000003FB012269683046BDE70B
:10845000D2F81080474657F8043B13B9FFF741FFA5
:10846000B5E7022914D104A9FFF761FF002884D0E1
:10847000D8F8003069683A4604A8984704460028AE
:108480003FF47BAF069B002BF2D1059B736083E723
:10849000012925D005292BD000297FF46EAF0C4689
:1084A0000DF1040901340B2C3FF467AF012249465A
:1084B0003046FFF7F5FD00283FF45FAF19F9013BA7
:1084C000002BEFDB0F4B049301ABCDE90534002308
:1084D0000793D8F8003069683A4604A8984776E7C9
:1084E000082201A9FFF7DCFD08240028EAD144E7AF
:1084F00004220DEB0201FFF7D3FD0424F5E700BFD2
:1085000028BC07003D7F07002DE9F04F91B00446DD
:10851000002604A8CDE90266FFF7A6FCA3683BBBD2
:10852000DDE9053404A89D78FFF7AFFC0028F7D1FA
:1085300015F0300F03D1059B1B8803B10134002CCB
:1085400000F0A9806309002202A9934240F09C80B8
:1085500010AA02EB830304F01F0453F8383CC4F163
:1085600020044FF0FF30E040C31A584258410DE05C
:108570000DF1030301AA0DF102012046FFF794FE5D
:1085800038B99DF80330002BCAD1002011B0BDE8E6
:10859000F08F019904A8FFF7BAFC002850D1019B85
:1085A000B3427DD3059D059A937803F00F03082B02
:1085B0007FD004A8FFF769FC059B9D42F3D14FF0E3
:1085C000FF36019FB7426BD3089B9DF802A0D4F8F9
:1085D00008801D684FF00109A368002D5DD0984503
:1085E0009CD12B68D3F800B0BBF1000F08D05346E4
:1085F0003A4629462046D8470028C6D0AD68EBE762
:10860000D3F808B0BBF800309F42F7D16A685946EA
:108610000AA8FFF729FC6B680E9305F10C030F9372
:108620009BF8023003F0C003802B04BF2B1D0E9378
:108630000AAA85F80C9051462046FFF791FEDBE729
:10864000059B9B7813F0300F0FD1069A3F2A0CD868
:10865000510910AB03EB810102F01F02012393408B
:1086600051F8382C134341F8383CE5682DB19DF89A
:108670000220019904AB2046A8479DF8021004AAE5
:108680002046FFF76DFE10E051F8225001357FF4CF
:108690007DAF013259E7012078E798457FF43EAF7E
:1086A0009DF802102046FFF71CFE00287FF436AF2D
:1086B0006BE7168885E737B50C4605461146204618
:1086C0000192FFF7DBFC019A2146284603B0BDE882
:1086D0003040FFF719BF70B586B0CE6801920C46E6
:1086E00002A90546FFF723FE68B1E06858B1A378F8
:1086F000019A03F03003202B314602A805D1FFF781
:10870000DAFF039B6B6006B070BDFFF7FDFEF8E774
:10871000D3B50C466946FFF739FD80B1DDE900139A
:1087200000274A0801F0010642EAC37256EA07012F
:108730004FEA53031CBFD243DB43C4E9002302B01A
:10874000D0BD37B50D4669461446FFF7E1FF68B165
:108750002B89082B0CD1DDE90001C4E90001DDE91A
:1087600000238B4206BF82420120002003B030BDAF
:10877000042B03D100982060C117F0E7022B04D12D
:10878000BDF90000208000B2F6E7012B04D19DF96D
:108790000000207040B2EFE70020E7E713B50422A5
:1087A0000C460DEB0201FFF77BFC08B1019B236037
:1087B00002B010BD1146FFF7F1BF13B508220C46F9
:1087C0006946FFF76DFC18B1DDE90023C4E9002319
:1087D00002B010BD1146FFF7F0BF10B513681F2B94
:1087E000144607D900220830FEF77DFC08B9202383
:1087F000236010BD48F21450FBE70830FEF750BC70
:108800000830FEF71DBC0000831F012B10B5044685
:1088100002D8002000F0A0FF034B1B681BB12046CC
:10882000BDE81040184710BD9060002008B5074B08
:1088300018600020FFF7E8FF054800F075FF20B939
:10884000BDE80840024800F0F3BD08BD906000207C
:10885000098807006CDF70476DDF704772DF704773
:1088600073DF704774DF704775DF704776DF7047DE
:108870007ADF70477CDF70477DDF70477FDF7047AE
:1088800086DF70478FDF704790DF7047A8DF704743
:10889000AADF7047ADDF7047AEDF7047B0DF7047CB
:1088A000B1DF7047B5DF704762DF704766DF704742
:1088B00013DF70477FB50023CDF80B308DF80F30F4
:1088C0000A4BADF806109B89ADF8083001238DF8EE
:1088D0000A300DF10603CDE90430054B02A91888D2
:1088E000FFF7DAFF07B05DF804FB00BFFE70002061
:1088F0009659002001460148FEF799B84CBF070081
:1089000070B518228CB000210DEB020002F046FF7A
:108910002823089316231E4CADF806300023CDE91A
:10892000033305930223092606222370237159235A
:108930000125A27063710322FE230DF10601A01927
:108940008DF818508DF82D500294ADF80C606570BC
:10895000E270A371FFF790FFB8B9BDF80630267238
:108960005A19E271BDF80C200A4C134402A906AA58
:108970002046ADF80C30FFF771FF30B92078FFF7D3
:1089800071FF20782946FFF76BFF0CB070BD00BF68
:1089900012710020945900202DE9F0410388232B07
:1089A0008AB0044636D80F2B05D8012B00F0F28090
:1089B0000AB0BDE8F081103B132BF9D801A252F8A0
:1089C00023F000BF458A0700618A0700B1890700CC
:1089D000318B0700918C0700B1890700B18907002E
:1089E000B1890700B1890700B18907009F8C070092
:1089F000B1890700B1890700B1890700B189070073
:108A0000638B0700B1890700718B0700B1890700EC
:108A1000218B0700503B9AB2062AC9D8062BC7D82B
:108A200001A252F823F000BF898A0700A18B07003A
:108A30009F8C0700B1890700B1890700E18A070010
:108A4000818B0700994B82881A80994A12681C46CC
:108A50000AB10120904797492088FFF705FFA7E753
:108A6000924B4FF6FF721A80934B1B685A0704D43F
:108A7000FFF746FF08B1FEF7D2FD8D4B1B68002BB8
:108A800096D00220984793E78C4EE288B3889A42AA
:108A90008ED18B48FDF7A5FF0546002888D0228A95
:108AA00004F1120102F0E0FD1822002104A802F0F6
:108AB00075FE08238DF81030824B0693824B059685
:108AC000CDE9073504A8238AADF8243000F0A6FCD0
:108AD00000283FF46DAF7A482946FDF7A8FF67E705
:108AE000E188F6291AD8CB1E9B070DD0CB1F9BB26D
:108AF000013B5A4202F0030203F0030301F1FF318C
:108B000058BF5342C91A89B2684B1888FFF7CAFE8A
:108B100000283FF44DAFFEF782FD49E7F721F3E768
:108B2000002204A98088CDE90422FFF7ADFEEFE71B
:108B300000235E4CADF812300223ADF810302088CF
:108B400002AB04AA42F605210593FFF7A3FE08B184
:108B5000FEF765FD002320881A468521FFF78EFE6B
:108B6000D6E7524B00F108011888FFF77DFECFE7EA
:108B7000002304A98088ADF81030FFF783FEC7E713
:108B8000A379002B7FF414AF484B13211888FFF70B
:108B90006DFEBDE7454B00211888FFF787FEB7E75C
:108BA000A379002B3FF404AF022B7FF401AF4349BC
:108BB00020898A8990420E467FF4FAAEA27B012A70
:108BC0007FF4F6AE00220120CDE904228DF81600D4
:108BD000208A364DADF81800608AADF81A0004F10D
:108BE00014000790ADF80A20098A28888DF8103003
:108BF00001AF02AAADF808300397FFF74BFEA84675
:108C000060B93846FEF72AFD40B940F2FD132888C6
:108C1000ADF8143004A9FFF741FEC9E6002304A90A
:108C2000B8F80000ADF81430FFF738FE0146002810
:108C30007FF4BEAE182204A802F0B0FD237D214AC5
:108C40008DF81030022B0596069218D0062B10D006
:108C5000012B10D11D4B1A881D4B1A80637DD4F84F
:108C600016200893012B099205D11A4800F074FDD3
:108C700001E0637D089304A800F0D0FB98E6A27D94
:108C8000637D43EA0223114A1380114A1380F2E7FD
:108C900000231A4619468088FFF7F2FD38E70023C3
:108CA000A0881A461946FFF7FBFD31E796590020C8
:108CB0003871002036BE070034710020FE7000209D
:108CC0004CBF0700458D0700F58807003C71002068
:108CD0003E71002038BF070038B515490B680246C1
:108CE00013F0010022D0134882421ED0124A10888D
:108CF0004FF6FF72904213D043F004030B60132130
:108D0000FFF7B4FD90B90D4DC82445F001054FF4AF
:108D10007A40A847013CFAD1BDE8384001F004BBD5
:108D2000074B1878FFF79EFDF6E7002038BD00BF1F
:108D30003471002038BF07009659002030BE07006C
:108D40009459002010B5044686B000210D2202A8D7
:108D5000019102F023FD2378082B0BD1364A3749C5
:108D600013880988013B9BB21380D9B1D3B903237F
:108D700011802370627823788DF805306021012AF4
:108D80008DF804108DF806200ED00B2A12D100F0B9
:108D900093F98DF80700002000F088F9042101A85C
:108DA000FFF788FD06B010BD062B05D0082B29D093
:108DB000032B27D00321F2E7E1688DF80710D4E9EF
:108DC0000123080A8DF80800080C090E8DF80A1016
:108DD000110A8DF80B208DF80C10110C120E8DF865
:108DE0000E201A0A8DF80F308DF810201A0C1B0E69
:108DF0008DF80D108DF809008DF811208DF81230C6
:108E00000F21CCE7D4E90123110A8DF807208DF852
:108E10000810110C120E8DF80A201A0A8DF80B306A
:108E20008DF80C201A0C1B0E8DF809108DF80D20F2
:108E30008DF80E300B21B2E73E7100203C7100200E
:108E40002DE9F043444B95B005464FF6FF721A806A
:108E500001204FF659632A4602A98DF80A00ADF8A1
:108E60000830FFF713FD0446002871D13B4B04AADC
:108E700003F11007164618685968144603C40833EE
:108E8000BB422246F7D1A91C3046FFF70DFD044630
:108E900000285DD101461C220DA802F07FFC9DF840
:108EA0003430ADF8044043F004038DF8343002232D
:108EB000ADF80C30AB788DF80E3004F0F80343F0C9
:108EC00003038DF80630F423CDE90A44ADF82C30C5
:108ED0002B4601AE33F8040B0C944FF0110903AF8D
:108EE00008AA0DA9CDE908768DF80590FFF7D0FC0A
:108EF000A046044660BB01461C220DA802F04EFCB1
:108F00009DF83430ADF8044023F0180343F0180303
:108F10008DF834300123ADF80C30AB788DF80E307D
:108F20001723CDE90A44ADF82C302B4608F0E808A9
:108F300033F80C0B0C9448F0130808AA0DA9CDE9DE
:108F400008768DF805908DF80680FFF7A1FC0446A1
:108F5000204615B0BDE8F0839659002020BE0700DA
:108F600030B5334C236813F0010585B05DD1314B2A
:108F700018603148FDF71EFD029500F0B8F8002892
:108F80004CD12E48FFF794FC002847D101F08EF910
:108F9000002843D102A801F057FA00283ED102A9C7
:108FA000012001F05BFA002838D102A801F0BEFAD6
:108FB000002833D100F090FB30B1214800F080FB55
:108FC000236843F002032360112302A88DF80430C4
:108FD000FFF742FC10BB9DF8093002A801338DF861
:108FE0000930FFF737FCC8B923689B0718D5144927
:108FF0008869043182B201A8FFF73CFC70B91148BE
:10900000FFF736FC50B91048FFF71AFF30B9FFF7E9
:1090100077FC18B9236843F00103236005B030BD25
:109020000A4802F00DFC0949E4E70020F6E700BF1A
:1090300034710020387100204CBF07000060070029
:109040009460002036BE0700FE70002018BE0700A6
:1090500043690BB1C06818477047000010B4054958
:10906000054C0022904218BF214604485DF8044B8D
:10907000FDF7F7BC80BA0700ACBA07000C5A002015
:1090800007B5009313460A4601460348FDF7EDFC79
:1090900003B05DF804FB00BF0C5A002013460A46DB
:1090A00001460148FDF7E8BC0C5A0020014B18703E
:1090B0000B20704740710020024B002218781A7074
:1090C000704700BF4071002018DF704730B585B091
:1090D000054610220C466846002102F05FFBA408FA
:1090E000684601950294FFF7EFFF05B030BD1FB54C
:1090F0000023CDE901330393684602230093FFF771
:10910000E3FF05B05DF804FB4FF000534FF48052CD
:109110001A60002070470000014B06201B681847AA
:109120004C7100200A2803D90B38C0B2FFF7BEBF2C
:109130007047000010B5044686B00020FDF7A4FC7F
:10914000014630B1164A18212046FDF77FFA06B0D5
:1091500010BD1822684602F021FB0423114A8DF845
:109160000030114B116D1B68994211D10F4B1868DB
:1091700000F066FF8DF80100FFF7D4FFD4E901137A
:109180008DF8010068469847094800F05DFADEE76F
:1091900001238DF801306846D4E901139847D6E7DA
:1091A00035910700FC7C00204471002048710020AC
:1091B00019910700F0B5044687B0182200216846CF
:1091C00002F0ECFA22788DF8002001238DF80130AE
:1091D000531E0B2B00F21681DFE813F01D00100068
:1091E0001D001D0014011D0014011D0014011401B7
:1091F00014010C00844B07201B689847D4E9011325
:10920000684698479DF80130012B00F0F0807E4BB6
:1092100005201B68EAE0062A7C4901D0012A01D119
:1092200022690A700A78012A04D0022A53D0002346
:109230000B7096E0072BE1D801A252F823F000BF93
:1092400061920700FD910700CB9207009F920700F3
:10925000FD910700C5920700FD9107007992070074
:10926000694B03201B689847606900F0D7FCFFF743
:1092700059FF8DF80100C1E7A18A206900F0E6FCE2
:10928000FFF750FF624B8DF80100DA6B1B6C029305
:10929000E3680192002BB1D020699847AEE75D49A1
:1092A0005D4800F021FDFFF73DFF01288DF801002A
:1092B000A4D1002000F0C8F900289FD00A238DF81F
:1092C00001309BE74FF400730393514BDA6B1B6C37
:1092D0000192029392E7072B90D801A252F823F053
:1092E00001930700FD910700BF930700C993070092
:1092F000FD910700F3930700FD91070067930700B6
:1093000000F0C4FC08B90823D9E762690AB903234D
:10931000D5E7C2F30B0333B13D4B3E495B6D0968A2
:1093200013448B42F3D1B2F5805F01D90423C6E721
:10933000374B3849586D096815188D42E3D85A647F
:10934000DA6C9A6418651863334B61691B6801F61F
:10935000FF710022090B1844FFF7A0FE00283FF41C
:109360004DAF0523ABE700F091FC0028CBD0284D92
:10937000A18AD5E914329B1A6A6C0B449342C6D871
:10938000254B2F6B1B68206905F148021F44FDF730
:109390002DFAE368A28A216906463846FFF770FE77
:1093A00008B1E36878E7A28A2B6B029613442B631B
:1093B000A38A2A6DAE6413442B6501931EE7144BF8
:1093C0009A6C02921B6DF8E7114BD3E91402596CA9
:1093D000821A8A4297D19A6C5865002120465964B6
:1093E000DA64FFF7A7FE084B1B680420984707B014
:1093F000F0BD074B9A6C1B6D01934FF480530292A2
:109400000393FBE602235AE74C7100209859002091
:10941000FC7C0020447100204871002083681BB14F
:10942000024A1821FDF712B907207047B5910700CD
:1094300038B50546C0B10120FFF710FE044648B913
:1094400000F0DEFB00F022FC30B9084B00201D606C
:10945000FFF72CFE204638BD0549064800F044FCC5
:109460000128F2D00324F5E70724F3E74C7100202C
:1094700044710020487100202DE9F04115464FF459
:109480006072064688461F4602F0BEF828B915B934
:109490000020BDE8F081A847FAE70022012130460C
:1094A000FFF7FCFD70B94FF460724146384602F098
:1094B000DBF82B464FF4607239463046FFF7E0FD8B
:1094C0000028E5D00320E4E72DE9F0413D4C236876
:1094D00001335CD000225821201DFDF787F9D4F814
:1094E0000080A8EB0002D2F1000848EB0208364DDC
:1094F000364E2F683B6801335ED000225821381D5C
:10950000FDF774F93B68834244D17C68012C0AD092
:109510000022C32107F51870FDF768F9D7F85C42FF
:10952000231A5C425C41B8F1000F35D02549274829
:109530004FF4607202F098F864B12968244854220C
:10954000043102F091F8296822484FF432725C31FC
:1095500002F08AF87468012C2CD11F49402201F5D1
:10956000E47002F081F81D491C2201F5E47002F05C
:109570007BF81B4986F8A1420023042201F28620D1
:1095800086F8603286F8E23202F06EF810E04FF0B2
:109590000008ACE70024C6E724B129680B484FF463
:1095A0006072D5E709484FF46072002102F0F6F8C6
:1095B00002237360BDE8F081B8F1000FF2D00024FF
:1095C000B4E700BF00F007009C590020FC7C00209D
:1095D000007D0020587D0020587E0020987E0020CD
:1095E000187D002070B50D4C0546002258212046FC
:1095F000FDF7FCF8002244F8040CC32104F51770B1
:10960000FDF7F4F8261FC4F858022A463146044BE9
:109610000448BDE87040FFF72FBF00BF007D002069
:109620005071002000F0070002460248024B00681B
:10963000FFF722BF9C590020D07400200149FFF79A
:10964000F3BF00BF00F0070038B505460020FFF764
:10965000C9FF044618B903492846FFF7E5FF20462D
:1096600038BD00BFFC7C002010B5FFF7F7FC0446B6
:1096700028B9FFF729FF2046FFF7E6FF00B10320D6
:1096800010BD29DF7047000038B50C4D0446D5F8F1
:10969000643378B101330FD1002218210430FDF773
:1096A000A5F82060214605F559700722BDE838402D
:1096B000FFF7E7BF0E2038BD0820FCE700F00700E9
:1096C00008B528B103491C2201F0CEFF002008BDD7
:1096D0000E20FCE764F3070010B5064C00221821A9
:1096E0002046FDF783F854F8043C1B1A58425841B1
:1096F00010BD00BF68F3070010B50A4CD4F824333E
:10970000D4F864231340013309D04FF4FE20FDF751
:10971000EDFDC92221464FF4FE20FDF715FE002085
:1097200010BD00BFFC7C0020F8B5094E094CA41BFD
:109730000746E4080025A54201D10020F8BD56F8EF
:109740003530384698470028F8D10135F3E700BF97
:1097500038BF070040BF0700F8B5094E094CA41BED
:109760000746E40800250436A54201D10020F8BDD3
:1097700056F83530384698470028F8D10135F3E7D8
:1097800038BF070040BF070008B50C22002102F0D7
:1097900005F8024B00221A6308BD00BFFC7C0020C4
:1097A00043F204031A68084B9A4201BF43F20803CC
:1097B000186800F6FF7020F47F600CBF20F00F00E7
:1097C0004FF48050704700BFDBE5B15108B5FFF79B
:1097D000E7FF054B9B69184400F6FF7020F47F609B
:1097E00020F00F0008BD00BFFC7C00204FF480502B
:1097F000704700002DE9F74F0193244BDFF894B038
:109800001B6ADFF894900093054616464FF0000857
:1098100043F2040AB8F1010F5FFA88F714D0022F5F
:109820001FD0FFF7D3FF6EB1009B013B5C425C4150
:10983000A9EB0000A84200D3F9B1B4B1A8421CD2F0
:1098400004201FE03446F3E7FFF7AAFF019B33B97A
:10985000DAF80040B4EB0B0418BF0124E8E74446F3
:10986000E6E701244FF48050E2E708F10108B8F17F
:10987000030FCFD1A842E3D300E017B10448FFF7AC
:1098800083FF002003B0BDE8F08F00BFFC7C002008
:10989000147D0020DBE5B1510030070090F8552021
:1098A00012F0FB0F07D190F8643023B1836ECBB177
:1098B0000B600120704712F0010303D090F856307E
:1098C00003B1836D9207F2D590F85C20002AEED0A8
:1098D000054A006EC2F5FC22904201D80344E6E737
:1098E000042070470F2070470060070010B5084C37
:1098F0004FF40072FF21204601F050FF202200218A
:10990000A4F1240001F04AFF002344F82C3C10BDD0
:10991000587D002030B55B68DA680D4B9A4208D15B
:109920000C490A6812B90C4A14681CB10B4B00228E
:109930001A7030BDD0E90134181913F9015B002DFC
:10994000A0EB0304F9DB0B601460044B0122EFE78A
:10995000F4BC070078780020747800207C78002020
:1099600010B543F2040319491C688C4202462BD0FF
:1099700042F20403C358581A434243418C421846EA
:1099800021D142F20403D358A3421CD14FF44053D7
:1099900002F500511B780978142B81BF43F21403A0
:1099A0000B481B68B3FBF0F398BF0023142989BF51
:1099B00042F2140100205058054A88BFB0FBF2F073
:1099C000181A18BF012010BD0023D7E7DBE5B151FD
:1099D00040420F002DE9FF472F49304D8A6B304C34
:1099E000304FDFF8D490DFF8D4A06E465C313046BB
:1099F000FEF7C2FB96E80F0085E80F0000212A4B16
:109A000039704FF447722046C9F80010CAF80010A8
:109A1000EB6001F0C3FE254922462846FEF74BFEC7
:109A200020B90027384604B0BDE8F0873F78002F02
:109A3000F7D094F86C3194F800801BB3B8F1000FA4
:109A4000EFD194F87231002BEBD0DAF80020D9F87E
:109A500000103046FEF790FB96E80F0085E80F00F7
:109A60004FF4B272414604F5BA7001F097FE104906
:109A700004F5BA722846FEF71EFE0028D1D004F580
:109A8000BA7406E0B8F1000FCBD0A379002BC8D090
:109A90000834084B1C60C5E7FC7C00209C7B002040
:109AA000807800207C78002015990700A8BD070069
:109AB000F4BC0700587C00207878002074780020DF
:109AC00000B591B0FDF72CFD684608492022FDF74E
:109AD0005AFD6A46064907484023FDF779FC064BC4
:109AE00001221A7011B05DF804FB00BFDCBB070057
:109AF000AC7B0020CCBB070050780020F0B5A3B0B1
:109B000007460D4614461E4678222023002104A84D
:109B1000029301F043FE00230393194B1B780BB90A
:109B2000FFF7CEFF2DB337BB02AB164F019316499B
:109B3000289B0097324604A8FDF7D8FCE8B9402CD2
:109B40001BD1124E22462946304601F08DFD2021C0
:109B50003046FDF724FDCDE90064029B0C493A46EE
:109B600003A8FDF751FC00280CBF0120052023B0FD
:109B7000F0BD1320FBE71620F9E70A20F7E700BF46
:109B800050780020F47B00204CBC0700147C00209F
:109B9000AC7B0020F0B5ABB004460D4616461F4620
:109BA0007822202300210CA8039301F0F7FD114B2C
:109BB0001B780BB9FFF784FF2FB12146202204A8A0
:109BC000FDF7D6FC04AC03AB0B4F01930B49009798
:109BD00033462A460CA8FDF789FC48B920222146C5
:109BE000384601F011FDB0FA80F040092BB0F0BD0D
:109BF0000020FBE750780020517800204CBC070083
:109C000008B5044B986B08B1FFF7E4FE024B1870DF
:109C100008BD00BFFC7C0020547C002010B5044629
:109C200058B1B0F5007F0AD8064B00221A70FFF732
:109C30005DFE054B01209C6310BD0320FCE7042062
:109C4000FAE700BF547C0020FC7C002070B50E4C6D
:109C50000646E06BA36B42189A420D4611D85C3061
:109C60000A462044314601F0FFFCE36B04F1400258
:109C70002B4429463046E363FCF7B8FD20640120FD
:109C800070BD0320FCE700BFFC7C0020014B18786E
:109C9000704700BF547C002013B5104C94F86C2121
:109CA000B2B194F8D802B4F8DA2204F5377104F5A9
:109CB000B8740B4B1B6800930A4B1B68FFF71EFF21
:109CC000012809D1201D02B0BDE8104000F0BCB948
:109CD000114610460434ECE702B010BD8078002035
:109CE00074780020787800202DE9F0411F4BD3E9EB
:109CF0000E329A4206460D4633D1DFF8788098F846
:109D000000704FB1FFF762FD194B306029461868AB
:109D1000BDE8F041FFF7C2BDFFF75CFE18B3FFF7E7
:109D2000BBFF0128376004462F6017D1104B29462E
:109D30001868FFF7B3FD012804460FD103463A46E1
:109D400028683946FFF756FD38B9FFF73FFD88F818
:109D5000004030602046BDE8F0810424FFF7C6FDD6
:109D6000F8E70824F6E70524F4E700BFFC7C0020B0
:109D7000587C0020547C002001237230FFF70ABF7A
:109D800013B50446084623781146032B03D8DFE8B1
:109D900003F021050F18002002B010BD0022D4F8F6
:109DA0000140FCF723FD844214BF00200120F3E7AB
:109DB0000A4600230146601C02B0BDE81040FFF7D0
:109DC000E9BE009103464022611C0020FFF796FE89
:109DD0000128E9E70120DFE72DE9F041A2B00446C0
:109DE0000D461646002178221F4604A8202303931F
:109DF0009DF8A08001F0D2FC41220021204601F014
:109E0000CDFCB5F894300BB195F8968084F80080BD
:109E1000B8F1030F1ED8DFE808F00902111F002275
:109E200039463046FCF7E2FCC4F801003A463146B8
:109E30002046FFF7A5FF22B0BDE8F08103AB0193F8
:109E4000631C009308493B46324604A8FDF74EFBCD
:109E50000028EBD00020EEE7B5F8982005F19A0134
:109E6000601C01F001FCE1E74CBC07002DE9F04764
:109E70006D4B1D68A4B004460F4690460A46014645
:109E80002846FFF779FF002800F0CC8095F8556050
:109E90001EBB4FF00109CDF800903B4622462946F3
:109EA00013A8FFF799FF00287FD0B8F1000F6DD0FD
:109EB00041225E4813A901F0D7FB5D4BC3F82C90FB
:109EC0001E626A689A60002239462046FCF78EFCC2
:109ED000574B0125C3E909709FE04122002102A8E8
:109EE00001F05CFC06F001094122002113A806F0F4
:109EF000020601F053FCB9F1000F4BD042F204030B
:109F0000E15803F1A34303F5471303F2D7539942F2
:109F10004BD1D5F858A00AF5FF520AF6FF73C3F3E8
:109F20000B031F32D21A42F20803E35893423CD388
:109F300043F204031B688B4213D14FF440531B7848
:109F4000102B8ABF43F2100300221A6804F5005355
:109F50001B78102B8ABF42F210030023E3589A4269
:109F600023D12046FFF7FCFC00B1F6B1012300939A
:109F700022465346294602A8FFF72EFFA8B1AB6D33
:109F8000E218FB1A4EB9B8F1000F18D1284B012581
:109F90005D6110E03B462246F4E70021009113A8E2
:109FA0002946FFF719FF0028EDD10525B8F1000F6C
:109FB00030D1FFF79BFC284624B0BDE8F087DFF8DE
:109FC0007080B9F1000F21D02046FFF7C9FC18B10D
:109FD00008F11800FFF7D8FB1648412202A901F04A
:109FE00043FB002E14BFAC23A523C8F82C30AB6D67
:109FF000C8F83430002E3FF466AF0F48412213A951
:10A0000001F032FB6B68C8F80C305CE7AA23C8F893
:10A010002C30EFE70948FFF7B7FBFFF767FC044B6D
:10A020009C64C8E71725C1E7587C00209D7F00206D
:10A03000FC7C00205C7F0020DE7F0020207D002053
:10A040000122FFF713BF0000F0B590F8542003463B
:10A05000002A51D090F8550003284DD893F86E206F
:10A06000032A47D11A7A002A46D0DA68342A45D121
:10A0700043F204011A8A0C6821498C422AD152B158
:10A080005969E9B1D2B2002103F1140543F20C067B
:10A09000CCB2A24201D8122011E055F821703488C8
:10A0A000A74201F10101F3D11A78FAB101285B68E6
:10A0B000144A15D89068834234BF10200120F0BDA7
:10A0C00010B9012AE7D8EFE7421E18BF0122002A83
:10A0D000EAD1E0E712B15A69002ADCD11A78F6E732
:10A0E000D06883428CBF01201020E8E7012818BF08
:10A0F0000F20E4E71420E2E70F20E0E71120DEE77D
:10A10000DBE5B151FC7C002038B1054B0360054B09
:10A11000436001230372002070470E20704700BF88
:10A120004FA1070029A1070069B10B78022B0CD1C0
:10A13000022804D0032814BF0820112070470323ED
:10A140000B70002070470E2070470820704710B534
:10A150000C4681B10B78012B06D00ED9033B012BA5
:10A1600094BF0820112010BDFFF78EFA0028FAD105
:10A1700002232370F7E70E20F5E70820F3E700003D
:10A1800070B5144B144A0C21D21AB2FBF1F281695A
:10A1900011F8025C044635B900690021914205D1ED
:10A1A000012323600EE04FF0FF30F6E71E68AE4259
:10A1B0000CD1461C07D19D68D4E90001D4E90223E3
:10A1C000A847206070BD5E688642F4D001310C3330
:10A1D000E4E700BF40BF07004CBF07001EF0040FBC
:10A1E0000CBFEFF30880EFF30980FFF7C9BF00BF92
:10A1F00010DF704711DF704713B504460949684600
:10A20000FCF76AFE019808B902B010BDD0E9002140
:10A210002046904718B16846FCF767FEF2E7112028
:10A22000F2E700BF44BE070013B50446074968467D
:10A23000FCF752FE019B0BB902B010BD2046D3E9DA
:10A24000002190476846FCF750FEF3E75CBE07002C
:10A25000064B9A6822B11A6822F480021A6070478D
:10A26000034B4FF48002C3F880207047F07C00203D
:10A2700000E100E00B4991F816335A09EC23134131
:10A28000DB0706D5084B9A683AB94FF480030B6098
:10A29000704742F20200FDF7C2B91A6842F4800228
:10A2A0001A60704700E100E0F07C0020F7B5194F1C
:10A2B0003C7864BB184E012520463570FFF79CFFA3
:10A2C000112821D02046FFF7AFFF144B8DF8034033
:10A2D000186801900DF10300FCF74EFA104901A82F
:10A2E000FFF786FF0446B0FA80F0400938709DF809
:10A2F0000300FCF765FA3CB90A4B34701C70FFF799
:10A30000B9FF2846FFF790FF204603B0F0BD0824B0
:10A31000FAE700BF5D7C00205C7C00203EBE0700A9
:10A32000197607005E7C0020F7B5154F3B781BB30C
:10A33000144E01203070FFF75FFF11284FF0000529
:10A340001CD00220FFF770FF0DF107008DF80750B9
:10A35000FCF712FAFFF74EFF04469DF807003D7028
:10A36000FCF72EFA2CB93470FFF772FF0320FFF7C9
:10A370005BFF204603B0F0BD0824FAE72C46F8E75F
:10A380005D7C00205C7C0020054B1B7833B1054BC5
:10A390001B780BB1FFF7C8BFFFF788BF08207047D5
:10A3A0005C7C00205D7C0020014B1878704700BF6A
:10A3B0005D7C002007B508496846FCF78DFD019BD0
:10A3C00013B903B05DF804FBD3E900209047684659
:10A3D000FCF78BFDF3E700BF50BE0700FFF7EABFB5
:10A3E00060DF704769DF704761DF704730B5114D3E
:10A3F000ADF5017D4FF4FA740DF1020103A8ADF83B
:10A400000240FFF7F1FF70B9294601A8FCF764FD8F
:10A41000029B002BF0D003A8D3E90021904701A8AC
:10A42000FCF763FDF4E7052801D0FDF7F8F80DF51A
:10A43000017D30BD68BE0700024B1B780BB1FFF7F2
:10A44000D5BF70475F7C002018B1034B036000202C
:10A4500070470E20704700BF68590020F0B50746CE
:10A4600085B00D4600295DD02F4B0B600C220021DA
:10A4700001A801F093F9012606232A68ADF80830F7
:10A4800001A920208DF804708DF80660FFF7AAFF5F
:10A490000C22002101A801F081F900242A688DF81E
:10A4A000056001A94020ADF80640FFF79BFF0C2294
:10A4B000214601A801F072F9F7232A68ADF80630A9
:10A4C00001A923208DF80470FFF78CFF0C22214690
:10A4D00001A801F063F92A688DF8046001A93046EB
:10A4E000FFF780FF0C22214601A801F057F94FF435
:10A4F000B0632A68019301A9A120FFF773FF0C2222
:10A50000214601A801F04AF99DF804302A6864F355
:10A51000000301A9A0208DF80430FFF763FF204657
:10A5200005B0F0BD0E20FBE76859002008B5FFF725
:10A5300057FF10B9014B01221A7008BD5F7C002043
:10A540004BDF70471FB50D4C01A8FFF7F9FF70B93D
:10A55000214602A8FCF7C0FC039B002BF4D0019815
:10A56000D3E90021904702A8FCF7BFFCF4E70528D7
:10A5700001D0FDF754F804B010BD00BF74BE070051
:10A580008B1802448B4200D1704713F8010D02F87A
:10A59000010DF7E7000000000000000000000000CF
:10A5A000C3F10803DB0070B501330446002003A5A6
:10A5B0005B1920C940CAAD1920C4184720C940CA38
:10A5C000754120C420C940CA754120C420C940CA71
:10A5D000754120C420C940CA754120C420C940CA61
:10A5E000754120C420C940CA754120C420C940CA51
:10A5F000754120C4404170BD000000000000000013
:10A60000C3F10803DB0070B50133002403A500BFCC
:10A610005B1920C940CAAD1B20C0184720C940CAD9
:10A62000B54120C020C940CAB54120C020C940CA98
:10A63000B54120C020C940CAB54120C020C940CA88
:10A64000B54120C020C940CAB54120C020C940CA78
:10A65000B54120C06441B4FA84F0400970BD00BF28
:10A660002DE9F04F08B4F8CA04B451F8042BA3FB49
:10A67000028940F8048B4FF0000AE4FB629A4FF025
:10A68000000BE5FB62AB4FF0000CE6FB62BC4FF049
:10A69000000EE7FB62CE51F8042B4FF00008E3FBFD
:10A6A000628940F8048BE4FB629AE5FB62ABE6FB4F
:10A6B00062BCE7FB62CE51F8042B4FF00008E3FBCD
:10A6C000628940F8048BE4FB629AE5FB62ABE6FB2F
:10A6D00062BCE7FB62CE51F8042B4FF00008E3FBAD
:10A6E000628940F8048BE4FB629AE5FB62ABE6FB0F
:10A6F00062BCE7FB62CE51F8042B4FF00008E3FB8D
:10A70000628940F8048BE4FB629AE5FB62ABE6FBEE
:10A7100062BCE7FB62CE40F8049B40F804AB40F813
:10A7200004BB40F804CB40F804EB0CBC052B00F054
:10A730001E810C68A0F11400A1F11401A2F1140211
:10A7400052F804EB4FF0000550F8046BE4FB6E5632
:10A7500052F804EB50F8047BE4FB6E6752F804EB0C
:10A7600050F8048BE4FB6E7852F804EB50F8049B2D
:10A77000E4FB6E8952F804EB50F804ABE4FB6E9AEC
:10A78000A0F1140052F8044B51F804EB4FF0000C08
:10A79000E4FB6EC540F804CB51F804EBE4FB6E56C5
:10A7A00040F8045B51F804EBE4FB6E6740F8046B7F
:10A7B00051F804EBE4FB6E7840F8047B51F804EBAD
:10A7C000E4FB6E8940F8048B51F804EBE4FB6E9ACD
:10A7D000A0E80006062B00F0CA800C68A0F1180063
:10A7E000A1F11801A2F1180252F804EB4FF0000594
:10A7F00050F8046BE4FB6E5652F804EB50F8047BFF
:10A80000E4FB6E6752F804EB50F8048BE4FB6E78BF
:10A8100052F804EB50F8049BE4FB6E8952F804EB09
:10A8200050F804ABE4FB6E9A52F804EB50F804BB0A
:10A83000E4FB6EABA0F1180052F8044B51F804EBA6
:10A840004FF0000CE4FB6EC540F804CB51F804EB6C
:10A85000E4FB6E5640F8045B51F804EBE4FB6E67D2
:10A8600040F8046B51F804EBE4FB6E7840F8047B8D
:10A8700051F804EBE4FB6E8940F8048B51F804EBCB
:10A88000E4FB6E9A40F8049B51F804EBE4FB6EABDA
:10A89000A0E8000C072B6AD008B40C68A0F11C00DB
:10A8A000A1F11C01A2F11C0252F804EB4FF00005CB
:10A8B00050F8046BE4FB6E5652F804EB50F8047B3E
:10A8C000E4FB6E6752F804EB50F8048BE4FB6E78FF
:10A8D00052F804EB50F8049BE4FB6E8952F804EB49
:10A8E00050F804ABE4FB6E9A52F804EB50F804BB4A
:10A8F000E4FB6EAB52F804EB50F804CBE4FB6EBC07
:10A90000A0F11C0052F8044B51F804EB4FF0000387
:10A91000E4FB6E3540F8043B51F804EBE4FB6E5663
:10A9200040F8045B51F804EBE4FB6E6740F8046BFD
:10A9300051F804EBE4FB6E7840F8047B51F804EB2B
:10A94000E4FB6E8940F8048B51F804EBE4FB6E9A4B
:10A9500040F8049B51F804EBE4FB6EAB40F804AB09
:10A9600051F804EBE4FB6EBCA0E8001808BCBDE89D
:10A97000F08F002310B51C465AB2914200DC10BD86
:10A9800040F823400133F7E710B500231A465CB2C4
:10A99000A14203DCB2FA82F0400910BD50F8234016
:10A9A00001332243F3E74A11012350F8220001F05A
:10A9B0001F0103FA01F108407047013910B549B28F
:10A9C000041D0A06CBB204D4013954F82120002A10
:10A9D000F7D001335BB273B103F18042013A50F812
:10A9E0002220002022B9013B00EB431318B210BD16
:10A9F00052080130F6E71846F9E710B500235CB2BB
:10AA0000A24200DC10BD51F8234040F8234001333E
:10AA1000F5E710B5013A52B2130601D5002010BD7A
:10AA200050F8224051F822309C4205D802F1FF3202
:10AA3000F2D24FF0FF30F2E70120F0E700EB8101A6
:10AA40000023884200D3704751F8042D43EA520393
:10AA50000B60D307F5E737B51D469DF91830019314
:10AA60000446FFF79DFD019B38B91A46214628464A
:10AA7000FFF7CFFF0128019B07D02A462146204639
:10AA800003B0BDE83040FFF7BBBD03B030BD37B504
:10AA90001D469DF9183001930446FFF7B1FD019B57
:10AAA00038B12A462146204603B0BDE83040FFF7C2
:10AAB00077BD03B030BD2DE9F04FB5B004AC9DF9C2
:10AAC000F8501E4680462B462046FFF7C9FD24ABB2
:10AAD00029463046CDE90234FFF76FFFC0EB851001
:10AAE00004B2002C2146B8BF04F11F01634241F3B8
:10AAF000471103F01F0314A804F01F0758BF5F425B
:10AB0000FFF737FF002F08B22BDD14AB002203EB59
:10AB10008001C7F1200E1346AB4217D36B0001939F
:10AB200014AB03EB85096F1E34AB012603EB8707DB
:10AB3000002C54DA34AB03EB86062A4656F8C81CC0
:10AB40004046FFF75AFF35B0BDE8F08F56F823C0F6
:10AB50000CFA07F0024341F8042B01332CFA0EF2F1
:10AB6000DAE714AB2A46314603EB8000FFF745FFD6
:10AB7000D4E70FFA82FE5AF8C83C53F82EB034AB33
:10AB800003EB8202013052F8803C0B44BBEB030321
:10AB900034BF012200229B4518BF11465CF8C82C27
:10ABA00042F82E30019B42B29A42E2DB731A5E42B7
:10ABB000294614A85E41FFF741FF34AB03EB850340
:10ABC000294653F8802C57F8803C484643EAC27324
:10ABD000013C47F8803C24B2FFF730FFA8E734ABD4
:10ABE0000020C6F1010C014603EB860A03EB8C0C36
:10ABF000D8E730B51C4691B0054693F90030684659
:10AC0000FFF72EFDD4F8AC3069462846984711B0BE
:10AC100030BD13460A46FFF7ECBF2DE9F04793F924
:10AC2000006092B0044689461046314615461F46DC
:10AC3000FFF7AAFE002840F091803A46494602A854
:10AC4000FFF7E7FF3B4602AA21460AA8FFF7D1FF1C
:10AC500002A908463A46FFF7DCFF3B462A4649462A
:10AC60004846FFF7C6FF07F104083A46294628463A
:10AC7000FFF7CFFF43462A46214620460096FFF7BE
:10AC8000EAFE43462A46294628460096FFF7E3FE99
:10AC900043462A46214628460096FFF7F8FE3B46E3
:10ACA0002A4621462046FFF7A4FF43462246214676
:10ACB00028460096FFF7CFFE434600962A462146D7
:10ACC0002046FFF7C8FE2368DB074AD533464246D5
:10ACD00021462046FFF764FC314682462046FFF7B6
:10ACE000ADFE06F18043013B54F8232042EACA72CC
:10ACF00044F823203A4621462846FFF78AFF434678
:10AD00000AAA294628460096FFF7C1FE43460AAA2A
:10AD1000294628460096FFF7BAFE0AA90846434688
:10AD20002A460096FFF7B3FE3B460AAA2146204674
:10AD3000FFF75FFF02AA4346104621460096FFF741
:10AD4000A6FE324629462046FFF757FE49462846CA
:10AD5000FFF753FE02A94846FFF74FFE12B0BDE8C9
:10AD6000F08731462046FFF769FEC3E72DE9F04141
:10AD700015468AB004460E461C22002103A800F0A6
:10AD80000DFD2F1D95F9008003232A4631462046EC
:10AD90000293FFF73EFF3B4602AA21462046CDF82C
:10ADA0000080FFF774FE2B46324621462046FFF70F
:10ADB00020FFCDF800803B4605F184022146204665
:10ADC000FFF749FE0AB0BDE8F08100002DE9F0422E
:10ADD000082288B00C468146FFF70FFECB6A03932A
:10ADE0000B6B04934B6B05938B6B0693CB6B0793A9
:10ADF000002708236A4669466846CDE9017700972F
:10AE0000FFF7CEFB082305466A4649464846FFF74A
:10AE1000C7FB236B0393636B0493A36B0593E36BF3
:10AE20000544CDE906376A46082369466846FFF7B8
:10AE3000B7FB082305446A4649464846FFF7B0FB7E
:10AE4000236A0093636A0193A36A0293A36B069338
:10AE5000E36B0793054408236A4649464846CDE913
:10AE600004770397FFF79CFB636A0093A36AA26BC6
:10AE70000193E36A02930492636BE26B0393CDE95F
:10AE80000523236A07932E1808236A464946484635
:10AE9000FFF786FBE36A0093236B0193636B0293D6
:10AEA000236A0693A36A0793351808236A4649461E
:10AEB0004846CDE904770397FFF7A2FB236B009385
:10AEC000636B0193A36B0293E36B0393636A069333
:10AED000E36A07932E1A08236A4649464846CDE995
:10AEE0000477FFF78DFB636B0093A36B0193E36B18
:10AEF0000293236A0393636A0493A36ACDE9053737
:10AF0000236B0793361A08236A4649464846FFF7DB
:10AF100077FBA36B0093E36BCDE90137636A03937F
:10AF2000A36A0493E36ACDE90537636B0793361A86
:10AF300008236A4649464846FFF762FB361A0E4C1C
:10AF40000FD436B9082249462046FFF762FD012892
:10AF50000FD00823224649464846FFF751FB361AD0
:10AF6000EFE70823224649464846FFF719FB361803
:10AF7000F7D408B0BDE8F08284BE070070B514466F
:10AF80008AB006460D461A46214602A80193FFF7ED
:10AF900040FE019B02AA31463046FFF72AFE02A975
:10AFA000019B22460846FFF724FE019B02AA294680
:10AFB0002846FFF71EFE0AB070BD2DE9F0478AB0A3
:10AFC0001446DDF848A055461F4615F9046B009657
:10AFD000804689462B460246214602A8FFF757FDC8
:10AFE00002A952460846FFF714FE534602AA4146FC
:10AFF0004046FFF7FEFD534602AA21462046FFF7D2
:10B00000F8FD2B464A46394638460096FFF73FFD85
:10B010005246394602A8FFF7FCFD02A92B464246DC
:10B0200008460096FFF733FD02A92B462246084644
:10B030000096FFF72CFD2B464246214620460096FF
:10B04000FFF725FD5346224649464846FFF7D1FD06
:10B050002B4602AA414620460096FFF718FD5346AC
:10B06000224639463846FFF7C4FD2B464A46394644
:10B0700038460096FFF70BFD324602A92046FFF73F
:10B08000BCFC0AB0BDE8F0872DE9F0479846B3F95B
:10B090000230894613F11F0148BF03F13E01DD1D57
:10B0A00048BF03F10E05EC104E11944275B228BF53
:10B0B000144629460746FFF75CFC22464946FFF73F
:10B0C0005FFAB8F90230B3EBC40F4FEAC40220D2E2
:10B0D000D21A07EB86010020C2F120068F420FD35F
:10B0E00008F124082A4639464046FFF792FC012819
:10B0F0000FD02B4642463846BDE8F047FFF780BAEE
:10B1000051F8044D24FA02F303430B6004FA06F0ED
:10B11000E4E7BDE8F08770B5036813F00106054663
:10B12000144605D013460A460146FFF739FA06468B
:10B1300021462846FFF782FC46B104F18042013ADD
:10B1400055F8223043F0004345F8223070BDF0B589
:10B150000F46A1B006461946384615461C46FFF76D
:10B1600013FC20B13046FFF704FC21B0F0BD2246AD
:10B1700039466846FFF741FC294608A8FFF73DFC21
:10B1800010A82146FFF7F5FB012318A81093FFF73D
:10B19000F0FB224608A96846FFF73BFC28B9224687
:10B1A00010A93046FFF729FCDFE7009BDA0709D436
:10B1B00021466846FFF742FC2246294610A8FFF7C1
:10B1C000AAFFE6E7089BDB0707D4214608A8FFF79C
:10B1D00035FC2246294618A8F1E7002823461CDD45
:10B1E00008AA69466846FFF70BFA21466846FFF74A
:10B1F00025FC224618A910A8FFF70BFC002805DA49
:10B2000010A923462A460846FFF7CAF910A9234683
:10B2100018AA0846FFF7F4F9CEE708A96A460846D7
:10B22000FFF7EEF9214608A8FFF708FC224610A90F
:10B2300018A8FFF7EEFB002805DA18A923462A46CE
:10B240000846FFF7ADF918A9234610AA0846FFF7EC
:10B25000D7F9BEE70048704780BE07002DE9F04FE0
:10B260002DED028BEDB08946789E05901946B6F912
:10B27000023096F9004013F11F0748BF03F13E0763
:10B2800047F3471707F1FF3B24AB002543F82B504A
:10B290006CAB03EB8B0307EE902A4CA896F90120C8
:10B2A00043F8805C43F8605CFFF76AF996F9012087
:10B2B00054A81144FFF764F921464CA8FFF764FB3A
:10B2C0008046002840F0428154A8FFF75DFB0390C0
:10B2D000002840F03D8106F1240A3A464CA9504628
:10B2E000FFF797FB012840F035813A4654A95046B4
:10B2F000FFF78FFB0128069040F02C811CAD3B46E8
:10B30000524654A92846FFF722FF0DF13008039B4F
:10B3100048F82B3017EE902A494640463346FFF74F
:10B32000B3FE4146404653462A460097FFF7C3FB0B
:10B330000DF5B87B53462A464CA914A80097FFF791
:10B34000BAFB224658460599FFF757FBA30007931F
:10B35000059B0BEB840903EB84014846FFF74DFB8B
:10B3600006F14403194634A80493FFF746FB049BF7
:10B37000A10059183CA8FFF740FB331D08EE903A96
:10B38000594634AA28460094FFF781FB4B465A469B
:10B390003CA934A80096FFF710FE18EE902A234629
:10B3A00029462846FFF7D3FE2A46494658463346E3
:10B3B000FFF7E4FD039B0893049B0993059B394623
:10B3C0004046CDE90A3BFFF7F8FA3946834614A810
:10B3D000FFF7F3FA5845B8BF58461FFA80FB0BF148
:10B3E000FF3109B240460491FFF7DDFA0499B0F14C
:10B3F000000814A818BF4FF00108FFF7D4FA00287E
:10B4000014BF0220002048EA00080DF1200922465E
:10B4100059F8281024A8FFF7F0FA0DF1B009A3009D
:10B4200019444846FFF7E9FA21462846FFF7A1FAF2
:10B43000069B2B60ABF1020824AB08EE105A0FFA02
:10B4400088F80493B8F1000F2ADA18EE902A18EE63
:10B45000101A18EE100A2346FFF779FE18EE102A8C
:10B46000049833464946FFF789FD04993A46504609
:10B47000FFF7CFFA012805D004993B46524608460B
:10B48000FFF7BEF8013C64B24CAA230653D5039BD8
:10B49000B3FA83F040096DB0BDEC028BBDE8F08FCC
:10B4A000334618EE102A0498D6F8A4504946A84707
:10B4B00041460CA8FFF777FA4146B0F1000B14A8FB
:10B4C00018BF4FF0010BFFF76EFA002814BF0220DF
:10B4D00000204BEA000B08AB53F82B1031B3224687
:10B4E00034A8FFF78AFA079B3CA81944FFF785FAAE
:10B4F00018EE102A33463CA934A8FFF73FFD18EE9A
:10B50000903A0499009434AA44A8FFF7C0FA049A28
:10B5100000964B463CA934A8FFF74FFD18EE101AD1
:10B5200018EE100A334644AAFFF763FB08F1FF3810
:10B530000FFA88F886E7049B52F8241053F8243059
:10B540004B40039919430391013C9EE72846A2E72B
:10B550004046A0E703989EE7002301461A46184696
:10B5600000F0DCB908B5074B044613B1002100F028
:10B5700025FA054B1868836A03B19847204600F006
:10B580006BFA00BFBDB9070030BF070038B50A4CE1
:10B590000A4D641BA4100AD004F18043013B05EB63
:10B5A0008305013C55F804399847002CF9D1BDE8D2
:10B5B000384000F059BA00BF0C5A0020085A002049
:10B5C00070B50D4E0D4D761BB61006D0002401341B
:10B5D00055F8043B9847A642F9D1094E094D761B10
:10B5E00000F03CFAB61006D00024013455F8043BB4
:10B5F0009847A642F9D170BD045A0020045A002091
:10B60000085A0020045A0020032A70B412D940EAD4
:10B610000105AD0704460B4620D11946204653F8D4
:10B62000045B54F8046BAE4218D1043A032A204656
:10B630001946F2D8541E72B103780A789A4208BFAC
:10B64000241806D00CE010F8013F11F8012F9342A6
:10B6500006D1A042F7D1002070BC7047541EEBE722
:10B66000981A70BC704700BF844641EA000313F08B
:10B6700003036DD1403A41D351F8043B40F8043BF9
:10B6800051F8043B40F8043B51F8043B40F8043BBC
:10B6900051F8043B40F8043B51F8043B40F8043BAC
:10B6A00051F8043B40F8043B51F8043B40F8043B9C
:10B6B00051F8043B40F8043B51F8043B40F8043B8C
:10B6C00051F8043B40F8043B51F8043B40F8043B7C
:10B6D00051F8043B40F8043B51F8043B40F8043B6C
:10B6E00051F8043B40F8043B51F8043B40F8043B5C
:10B6F00051F8043B40F8043B403ABDD2303211D3FC
:10B7000051F8043B40F8043B51F8043B40F8043B3B
:10B7100051F8043B40F8043B51F8043B40F8043B2B
:10B72000103AEDD20C3205D351F8043B40F8043BFB
:10B73000043AF9D2043208D0D2071CBF11F8013BF9
:10B7400000F8013B01D30B8803806046704700BFBF
:10B75000082A13D38B078DD010F003038AD0C3F1CE
:10B760000403D21ADB071CBF11F8013B00F8013BB0
:10B7700080D331F8023B20F8023B7BE7043AD9D36F
:10B78000013A11F8013B00F8013BF9D20B78037044
:10B790004B7843708B78837060467047F0B48607AF
:10B7A00046D0541E002A3CD0CAB2034602E014F12F
:10B7B000FF3436D303F8012B9D07F8D1032C29D988
:10B7C000CDB245EA05250F2C45EA054533D9A4F14C
:10B7D0001006360903F1200707EB061703F11002E4
:10B7E00042E9045542E902551032BA42F8D1721CBE
:10B7F00014F00C0F03EB021204F00F0613D0331FEA
:10B8000023F003030433134442F8045B9342FBD157
:10B8100006F003042CB1C9B21C4403F8011B9C427E
:10B82000FBD1F0BC704734461346002CF3D1F8E747
:10B8300014460346C2E71A462646E0E70000000029
:10B8400090F800F06DE9024520F007016FF0000C60
:10B8500010F0070491F820F040F049804FF0000408
:10B860006FF00700D1E9002391F840F000F10800E3
:10B8700082FA4CF2A4FA8CF283FA4CF3A2FA8CF31B
:10B880004BBBD1E9022382FA4CF200F10800A4FA82
:10B890008CF283FA4CF3A2FA8CF3E3B9D1E90423D6
:10B8A00082FA4CF200F10800A4FA8CF283FA4CF30D
:10B8B000A2FA8CF37BB9D1E9062301F1200182FAC7
:10B8C0004CF200F10800A4FA8CF283FA4CF3A2FACD
:10B8D0008CF3002BC6D0002A04BF04301A4612BADB
:10B8E000B2FA82F2FDE8024500EBD2007047D1E9DE
:10B8F000002304F00305C4F100004FEAC50514F06D
:10B90000040F91F840F00CFA05F562EA05021CBF3D
:10B9100063EA050362464FF00004A9E72DE9F84306
:10B92000224C25680DB36C681F2C3BDC9846914671
:10B930000F46064688B1D5F8880028B3D0F8003104
:10B9400040F824900122A24000EB84011343022E10
:10B95000C0F80031C1F8808010D0A31C01346C60A5
:10B9600045F823700020BDE8F883114E114D256085
:10B97000002ED8D03468C5F88840D4E7D0F8043118
:10B980001A43C0F80421E8E70B4B5BB14FF4847015
:10B99000AFF3008030B100236C68C0E94033C5F8D4
:10B9A0008800CDE74FF0FF30DDE700BFEC7C0020E2
:10B9B00000000000607C0020000000002DE9F04F36
:10B9C000DFF8908083B0D8F8005001900F464FF018
:10B9D000010A8DB16C68D5F88860013C0CD405F182
:10B9E000080B67B12EB106F1800353F82430BB4237
:10B9F00005D014F1FF34F4D203B0BDE8F08F6B68CA
:10BA00005BF82420013BA34216BF00236C604BF877
:10BA10002430002AEDD0D5F80490B6B1D6F8001144
:10BA20000AFA04F30B4210D0D6F8040156F8241099
:10BA300003420CD1019890476B68D8F800204B4521
:10BA400001D1AA42D5D01546C3E79047F4E708468E
:10BA50009047F1E7EC7C0020FEE700BFF8B500BF9F
:10BA6000F8BC08BC9E467047F8B500BFF8BC08BCDF
:10BA70009E46704700100000040000000100000016
:10BA8000D16A0700F56A0700056B0700756B0700B0
:10BA9000156B0700DD6A0700E16A0700E56A070029
:10BAA000001000000400000001000000816C07008D
:10BAB000616C0700516C0700896E07003D6E07003E
:10BAC000236C0700276C07002D6C0700982F8A4213
:10BAD00091443771CFFBC0B5A5DBB5E95BC25639E0
